{
  "contractName": "juryRegistry",
  "abi": [
    {
      "inputs": [],
      "stateMutability": "nonpayable",
      "type": "constructor"
    },
    {
      "anonymous": false,
      "inputs": [
        {
          "indexed": true,
          "internalType": "address",
          "name": "adminApproved",
          "type": "address"
        }
      ],
      "name": "AddAdmin",
      "type": "event"
    },
    {
      "anonymous": false,
      "inputs": [
        {
          "indexed": false,
          "internalType": "uint256",
          "name": "amount",
          "type": "uint256"
        }
      ],
      "name": "AddCommitedBalance",
      "type": "event"
    },
    {
      "anonymous": false,
      "inputs": [
        {
          "indexed": false,
          "internalType": "string",
          "name": "proposalDescription",
          "type": "string"
        },
        {
          "indexed": false,
          "internalType": "bool",
          "name": "adminCorrectAnswer",
          "type": "bool"
        },
        {
          "indexed": false,
          "internalType": "uint256",
          "name": "rewardPercent",
          "type": "uint256"
        }
      ],
      "name": "CreateNewProposal",
      "type": "event"
    },
    {
      "anonymous": false,
      "inputs": [
        {
          "indexed": true,
          "internalType": "address",
          "name": "selectedProposal",
          "type": "address"
        }
      ],
      "name": "DistributeRewards",
      "type": "event"
    },
    {
      "anonymous": false,
      "inputs": [
        {
          "indexed": true,
          "internalType": "address",
          "name": "user",
          "type": "address"
        },
        {
          "indexed": false,
          "internalType": "uint256",
          "name": "amount",
          "type": "uint256"
        }
      ],
      "name": "MergeCommittedBalance",
      "type": "event"
    },
    {
      "anonymous": false,
      "inputs": [
        {
          "indexed": false,
          "internalType": "address",
          "name": "account",
          "type": "address"
        }
      ],
      "name": "Paused",
      "type": "event"
    },
    {
      "anonymous": false,
      "inputs": [
        {
          "indexed": true,
          "internalType": "address",
          "name": "RemoveAdmin",
          "type": "address"
        }
      ],
      "name": "RemoveAdmin",
      "type": "event"
    },
    {
      "anonymous": false,
      "inputs": [
        {
          "indexed": true,
          "internalType": "bytes32",
          "name": "role",
          "type": "bytes32"
        },
        {
          "indexed": true,
          "internalType": "bytes32",
          "name": "previousAdminRole",
          "type": "bytes32"
        },
        {
          "indexed": true,
          "internalType": "bytes32",
          "name": "newAdminRole",
          "type": "bytes32"
        }
      ],
      "name": "RoleAdminChanged",
      "type": "event"
    },
    {
      "anonymous": false,
      "inputs": [
        {
          "indexed": true,
          "internalType": "bytes32",
          "name": "role",
          "type": "bytes32"
        },
        {
          "indexed": true,
          "internalType": "address",
          "name": "account",
          "type": "address"
        },
        {
          "indexed": true,
          "internalType": "address",
          "name": "sender",
          "type": "address"
        }
      ],
      "name": "RoleGranted",
      "type": "event"
    },
    {
      "anonymous": false,
      "inputs": [
        {
          "indexed": true,
          "internalType": "bytes32",
          "name": "role",
          "type": "bytes32"
        },
        {
          "indexed": true,
          "internalType": "address",
          "name": "account",
          "type": "address"
        },
        {
          "indexed": true,
          "internalType": "address",
          "name": "sender",
          "type": "address"
        }
      ],
      "name": "RoleRevoked",
      "type": "event"
    },
    {
      "anonymous": false,
      "inputs": [
        {
          "indexed": false,
          "internalType": "address",
          "name": "account",
          "type": "address"
        }
      ],
      "name": "Unpaused",
      "type": "event"
    },
    {
      "anonymous": false,
      "inputs": [
        {
          "indexed": true,
          "internalType": "address",
          "name": "user",
          "type": "address"
        },
        {
          "indexed": false,
          "internalType": "uint256",
          "name": "amount",
          "type": "uint256"
        }
      ],
      "name": "WithdrawCommittedBalance",
      "type": "event"
    },
    {
      "inputs": [],
      "name": "DEFAULT_ADMIN_ROLE",
      "outputs": [
        {
          "internalType": "bytes32",
          "name": "",
          "type": "bytes32"
        }
      ],
      "stateMutability": "view",
      "type": "function",
      "constant": true
    },
    {
      "inputs": [
        {
          "internalType": "uint256",
          "name": "",
          "type": "uint256"
        }
      ],
      "name": "activeProposals",
      "outputs": [
        {
          "internalType": "address",
          "name": "",
          "type": "address"
        }
      ],
      "stateMutability": "view",
      "type": "function",
      "constant": true
    },
    {
      "inputs": [
        {
          "internalType": "uint256",
          "name": "",
          "type": "uint256"
        }
      ],
      "name": "endedProposals",
      "outputs": [
        {
          "internalType": "address",
          "name": "",
          "type": "address"
        }
      ],
      "stateMutability": "view",
      "type": "function",
      "constant": true
    },
    {
      "inputs": [
        {
          "internalType": "bytes32",
          "name": "role",
          "type": "bytes32"
        }
      ],
      "name": "getRoleAdmin",
      "outputs": [
        {
          "internalType": "bytes32",
          "name": "",
          "type": "bytes32"
        }
      ],
      "stateMutability": "view",
      "type": "function",
      "constant": true
    },
    {
      "inputs": [
        {
          "internalType": "bytes32",
          "name": "role",
          "type": "bytes32"
        },
        {
          "internalType": "uint256",
          "name": "index",
          "type": "uint256"
        }
      ],
      "name": "getRoleMember",
      "outputs": [
        {
          "internalType": "address",
          "name": "",
          "type": "address"
        }
      ],
      "stateMutability": "view",
      "type": "function",
      "constant": true
    },
    {
      "inputs": [
        {
          "internalType": "bytes32",
          "name": "role",
          "type": "bytes32"
        }
      ],
      "name": "getRoleMemberCount",
      "outputs": [
        {
          "internalType": "uint256",
          "name": "",
          "type": "uint256"
        }
      ],
      "stateMutability": "view",
      "type": "function",
      "constant": true
    },
    {
      "inputs": [
        {
          "internalType": "bytes32",
          "name": "role",
          "type": "bytes32"
        },
        {
          "internalType": "address",
          "name": "account",
          "type": "address"
        }
      ],
      "name": "grantRole",
      "outputs": [],
      "stateMutability": "nonpayable",
      "type": "function"
    },
    {
      "inputs": [
        {
          "internalType": "bytes32",
          "name": "role",
          "type": "bytes32"
        },
        {
          "internalType": "address",
          "name": "account",
          "type": "address"
        }
      ],
      "name": "hasRole",
      "outputs": [
        {
          "internalType": "bool",
          "name": "",
          "type": "bool"
        }
      ],
      "stateMutability": "view",
      "type": "function",
      "constant": true
    },
    {
      "inputs": [],
      "name": "paused",
      "outputs": [
        {
          "internalType": "bool",
          "name": "",
          "type": "bool"
        }
      ],
      "stateMutability": "view",
      "type": "function",
      "constant": true
    },
    {
      "inputs": [
        {
          "internalType": "bytes32",
          "name": "role",
          "type": "bytes32"
        },
        {
          "internalType": "address",
          "name": "account",
          "type": "address"
        }
      ],
      "name": "renounceRole",
      "outputs": [],
      "stateMutability": "nonpayable",
      "type": "function"
    },
    {
      "inputs": [
        {
          "internalType": "bytes32",
          "name": "role",
          "type": "bytes32"
        },
        {
          "internalType": "address",
          "name": "account",
          "type": "address"
        }
      ],
      "name": "revokeRole",
      "outputs": [],
      "stateMutability": "nonpayable",
      "type": "function"
    },
    {
      "inputs": [],
      "name": "totalProposalCounter",
      "outputs": [
        {
          "internalType": "uint256",
          "name": "",
          "type": "uint256"
        }
      ],
      "stateMutability": "view",
      "type": "function",
      "constant": true
    },
    {
      "inputs": [
        {
          "internalType": "string",
          "name": "proposalDescription",
          "type": "string"
        },
        {
          "internalType": "bool",
          "name": "correctAnswer",
          "type": "bool"
        },
        {
          "internalType": "uint256",
          "name": "rewardPercent",
          "type": "uint256"
        },
        {
          "internalType": "uint256",
          "name": "rewardPercentDecimal",
          "type": "uint256"
        },
        {
          "internalType": "uint256",
          "name": "votesLimit",
          "type": "uint256"
        }
      ],
      "name": "createNewProposal",
      "outputs": [
        {
          "internalType": "address",
          "name": "",
          "type": "address"
        }
      ],
      "stateMutability": "nonpayable",
      "type": "function"
    },
    {
      "inputs": [
        {
          "internalType": "address",
          "name": "approvedAdmin",
          "type": "address"
        }
      ],
      "name": "addAdmin",
      "outputs": [],
      "stateMutability": "nonpayable",
      "type": "function"
    },
    {
      "inputs": [
        {
          "internalType": "address",
          "name": "removedAdmin",
          "type": "address"
        }
      ],
      "name": "removeAdmin",
      "outputs": [],
      "stateMutability": "nonpayable",
      "type": "function"
    },
    {
      "inputs": [
        {
          "internalType": "address",
          "name": "user",
          "type": "address"
        }
      ],
      "name": "isAdminCheck",
      "outputs": [],
      "stateMutability": "view",
      "type": "function",
      "constant": true
    },
    {
      "inputs": [
        {
          "internalType": "address",
          "name": "unstakedUser",
          "type": "address"
        }
      ],
      "name": "addUnstakedAddress",
      "outputs": [],
      "stateMutability": "nonpayable",
      "type": "function"
    },
    {
      "inputs": [
        {
          "internalType": "address",
          "name": "selectedProposal",
          "type": "address"
        }
      ],
      "name": "distributeRewards",
      "outputs": [],
      "stateMutability": "nonpayable",
      "type": "function"
    },
    {
      "inputs": [
        {
          "internalType": "uint256",
          "name": "amount",
          "type": "uint256"
        }
      ],
      "name": "addCommitedBalance",
      "outputs": [],
      "stateMutability": "nonpayable",
      "type": "function"
    },
    {
      "inputs": [],
      "name": "withdrawCommittedBalance",
      "outputs": [],
      "stateMutability": "nonpayable",
      "type": "function"
    },
    {
      "inputs": [],
      "name": "mergeCommittedBalance",
      "outputs": [],
      "stateMutability": "nonpayable",
      "type": "function"
    },
    {
      "inputs": [
        {
          "internalType": "address",
          "name": "_user",
          "type": "address"
        }
      ],
      "name": "newSponBalance",
      "outputs": [
        {
          "internalType": "uint256",
          "name": "",
          "type": "uint256"
        }
      ],
      "stateMutability": "view",
      "type": "function",
      "constant": true
    },
    {
      "inputs": [
        {
          "internalType": "address",
          "name": "_user",
          "type": "address"
        }
      ],
      "name": "getUserCommittedBalance",
      "outputs": [
        {
          "internalType": "uint256",
          "name": "",
          "type": "uint256"
        }
      ],
      "stateMutability": "view",
      "type": "function",
      "constant": true
    },
    {
      "inputs": [
        {
          "internalType": "address",
          "name": "user",
          "type": "address"
        }
      ],
      "name": "isCommitBalance",
      "outputs": [],
      "stateMutability": "nonpayable",
      "type": "function"
    },
    {
      "inputs": [],
      "name": "startPause",
      "outputs": [],
      "stateMutability": "nonpayable",
      "type": "function"
    },
    {
      "inputs": [],
      "name": "startUnpause",
      "outputs": [],
      "stateMutability": "nonpayable",
      "type": "function"
    }
  ],
  "bytecode": "0x60806040526078600255600a80546001600160a01b031990811673d18f0f7a15bc2f472592c11d17c5a77624c636c217909155600b805490911673b9a45f3684a280df5cace4f4a2310076771a86b71790553480156200005e57600080fd5b50600180546001600160a81b031916610100338102919091179182905562000094916000916001600160a01b03910416620000d8565b600154620000d2907fa49807205ce4d355092ef5a8a18f56e8913cf4a201fbe287825b095693c217759061010090046001600160a01b0316620000d8565b620001ec565b620000e48282620000e8565b5050565b6000828152602081815260409091206200010d9183906200208562000161821b17901c565b15620000e4576200011d62000181565b6001600160a01b0316816001600160a01b0316837f2f8788117e7eff1d82e926ec794901d17c78024a50270940304540a733656f0d60405160405180910390a45050565b600062000178836001600160a01b03841662000185565b90505b92915050565b3390565b6000620001938383620001d4565b620001cb575081546001818101845560008481526020808220909301849055845484825282860190935260409020919091556200017b565b5060006200017b565b60009081526001919091016020526040902054151590565b613f1380620001fc6000396000f3fe60806040523480156200001157600080fd5b5060043610620001b45760003560e01c806391d1485411620000f3578063c6ce428d11620000a5578063e11bed7a116200007b578063e11bed7a1462000559578063e40824f81462000582578063e440810114620005a2578063ee71406414620005ac57620001b4565b8063c6ce428d1462000500578063ca15c873146200050a578063d547741f146200052a57620001b4565b806391d148541462000461578063996c0de514620004905780639cab033d146200049a5780639ce4317e14620004c3578063a217fddf14620004ec578063ae2035aa14620004f657620001b4565b80633e6bd5fc116200016b5780635f675eb911620001415780635f675eb9146200032d57806362a57a2014620003375780637048027514620004125780639010d07c146200043b57620001b4565b80633e6bd5fc14620002c65780635b38036214620002ef5780635c975abb146200030f57620001b4565b80630b8257f814620001b95780631785f53c14620001e45780631de9d9b6146200020d578063248a9ca314620002365780632f2ff15d146200026857806336568abe1462000297575b600080fd5b620001e260048036036020811015620001d157600080fd5b50356001600160a01b0316620005cc565b005b620001e260048036036020811015620001fc57600080fd5b50356001600160a01b03166200064e565b620001e2600480360360208110156200022557600080fd5b50356001600160a01b031662000712565b62000256600480360360208110156200024e57600080fd5b503562000e66565b60408051918252519081900360200190f35b620001e2600480360360408110156200028057600080fd5b50803590602001356001600160a01b031662000e7b565b620001e260048036036040811015620002af57600080fd5b50803590602001356001600160a01b031662000ee9565b6200025660048036036020811015620002de57600080fd5b50356001600160a01b031662000f50565b620001e2600480360360208110156200030757600080fd5b503562000fd5565b620003196200128d565b604080519115158252519081900360200190f35b620001e262001296565b620003f6600480360360a08110156200034f57600080fd5b8101906020810181356401000000008111156200036b57600080fd5b8201836020820111156200037e57600080fd5b80359060200191846001830284011164010000000083111715620003a157600080fd5b91908080601f01602080910402602001604051908101604052809392919081815260200183838082843760009201919091525092955050505080351515915060208101359060408101359060600135620015ea565b604080516001600160a01b039092168252519081900360200190f35b620001e2600480360360208110156200042a57600080fd5b50356001600160a01b031662001931565b620003f6600480360360408110156200045357600080fd5b5080359060200135620019f5565b62000319600480360360408110156200047957600080fd5b50803590602001356001600160a01b031662001a18565b620001e262001a32565b6200025660048036036020811015620004b257600080fd5b50356001600160a01b031662001d40565b620001e260048036036020811015620004db57600080fd5b50356001600160a01b031662001d5b565b6200025662001db1565b620001e262001db6565b620001e262001ebd565b62000256600480360360208110156200052257600080fd5b503562001f74565b620001e2600480360360408110156200054257600080fd5b50803590602001356001600160a01b031662001f8d565b620001e2600480360360208110156200057157600080fd5b50356001600160a01b031662001feb565b620003f6600480360360208110156200059a57600080fd5b503562002043565b620002566200206e565b620003f660048036036020811015620005c457600080fd5b503562002074565b620005e26000620005dc6200209c565b62001a18565b6200061f5760405162461bcd60e51b815260040180806020018281038252602a81526020018062003cbd602a913960400191505060405180910390fd5b6200064b7fbf51213143e517e7c28e119c116c7ff05540befafda101302ae548faceab5e728262000e7b565b50565b6200065e6000620005dc6200209c565b6200069b5760405162461bcd60e51b815260040180806020018281038252602a81526020018062003cbd602a913960400191505060405180910390fd5b6001600160a01b038116620006f7576040805162461bcd60e51b815260206004820181905260248201527f4a7572792050726f746f636f6c3a20696e76616c69656420616464726573732e604482015290519081900360640190fd5b6200064b60008051602062003d6f8339815191528262001f8d565b6200071c6200128d565b1562000762576040805162461bcd60e51b815260206004820152601060248201526f14185d5cd8589b194e881c185d5cd95960821b604482015290519081900360640190fd5b6200077d60008051602062003d6f8339815191523362001a18565b620007ba5760405162461bcd60e51b815260040180806020018281038252602c81526020018062003e20602c913960400191505060405180910390fd5b60008190506000816001600160a01b031663736ba5166040518163ffffffff1660e01b815260040160206040518083038186803b158015620007fb57600080fd5b505afa15801562000810573d6000803e3d6000fd5b505050506040513d60208110156200082757600080fd5b505160408051630deafa0160e41b8152821515600482015290519192506060916001600160a01b0385169163deafa010916024808301926000929190829003018186803b1580156200087857600080fd5b505afa1580156200088d573d6000803e3d6000fd5b505050506040513d6000823e601f3d908101601f191682016040526020811015620008b757600080fd5b8101908080516040519392919084640100000000821115620008d857600080fd5b908301906020820185811115620008ee57600080fd5b82518660208202830111640100000000821117156200090c57600080fd5b82525081516020918201928201910280838360005b838110156200093b57818101518382015260200162000921565b5050505090500160405250505090506000836001600160a01b0316630e8622d36040518163ffffffff1660e01b815260040160206040518083038186803b1580156200098657600080fd5b505afa1580156200099b573d6000803e3d6000fd5b505050506040513d6020811015620009b257600080fd5b50516040805163ca3bfe8b60e01b815290519192506000916001600160a01b0387169163ca3bfe8b916004808301926020929190829003018186803b158015620009fb57600080fd5b505afa15801562000a10573d6000803e3d6000fd5b505050506040513d602081101562000a2757600080fd5b5051600a546040805163313ce56760e01b815290519293506000926001600160a01b039092169163313ce56791600480820192602092909190829003018186803b15801562000a7557600080fd5b505afa15801562000a8a573d6000803e3d6000fd5b505050506040513d602081101562000aa157600080fd5b50519050600062000ac6606462000abf8660ff8616600a0a620020a0565b90620020fe565b9050600062000ae36103e862000abf8760ff8716600a0a620020a0565b9050600080896001600160a01b031663fb8edbbe6040518163ffffffff1660e01b815260040160206040518083038186803b15801562000b2257600080fd5b505afa15801562000b37573d6000803e3d6000fd5b505050506040513d602081101562000b4e57600080fd5b50519050600281141562000c435760005b6001895103811162000c37576001870381111562000b7d5762000c37565b600089828151811062000b8c57fe5b6020908102919091018101516001600160a01b03811660009081526004909252604082205490925062000bc890670de0b6b3a7640000620020fe565b9050600062000bd88289620020a0565b6001600160a01b03841660009081526004602052604090205490915062000c00908262002167565b6001600160a01b03841660009081526004602052604090205562000c25868262002167565b9550506001909201915062000b5f9050565b50600c82905562000d2f565b806003141562000d2f5760005b6001895103811162000d28576001870381111562000c6e5762000d28565b600089828151811062000c7d57fe5b6020908102919091018101516001600160a01b03811660009081526004909252604082205490925062000cb990670de0b6b3a7640000620020fe565b9050600062000cc98288620020a0565b6001600160a01b03841660009081526004602052604090205490915062000cf1908262002167565b6001600160a01b03841660009081526004602052604090205562000d16868262002167565b9550506001909201915062000c509050565b50600c8290555b600a54600180546001600160a01b03928316926323b872dd926101009092041690309062000d5f90879062002167565b6040518463ffffffff1660e01b815260040180846001600160a01b03168152602001836001600160a01b031681526020018281526020019350505050602060405180830381600087803b15801562000db657600080fd5b505af115801562000dcb573d6000803e3d6000fd5b505050506040513d602081101562000de257600080fd5b50506008805460018101825560009182527ff3f7a9fe364faab93b216da50a3214154f22a0a2b415b23a84c8169e8b636ee30180546001600160a01b0319166001600160a01b038e1690811790915560405190917f1089620d09f2053697cb85af62cfdb86a59650ffd19881f0d7a83132a3cd0f5991a25050505050505050505050565b60009081526020819052604090206002015490565b60008281526020819052604090206002015462000e9c90620005dc6200209c565b62000ed95760405162461bcd60e51b815260040180806020018281038252602f81526020018062003b29602f913960400191505060405180910390fd5b62000ee58282620021c2565b5050565b62000ef36200209c565b6001600160a01b0316816001600160a01b03161462000f445760405162461bcd60e51b815260040180806020018281038252602f81526020018062003eaf602f913960400191505060405180910390fd5b62000ee5828262002230565b600a54604080516370a0823160e01b81526001600160a01b0384811660048301529151600093849316916370a08231916024808301926020929190829003018186803b15801562000fa057600080fd5b505afa15801562000fb5573d6000803e3d6000fd5b505050506040513d602081101562000fcc57600080fd5b50519392505050565b62000fdf6200128d565b1562001025576040805162461bcd60e51b815260206004820152601060248201526f14185d5cd8589b194e881c185d5cd95960821b604482015290519081900360640190fd5b6000620010316200209c565b90506001600160a01b0381166200108f576040805162461bcd60e51b815260206004820152601f60248201527f4a7572792050726f746f636f6c3a20696e76616c696420616464726573732e00604482015290519081900360640190fd5b600a54604080516370a0823160e01b81526001600160a01b038481166004830152915160009392909216916370a0823191602480820192602092909190829003018186803b158015620010e157600080fd5b505afa158015620010f6573d6000803e3d6000fd5b505050506040513d60208110156200110d57600080fd5b5051116200114d5760405162461bcd60e51b815260040180806020018281038252602f81526020018062003e4c602f913960400191505060405180910390fd5b620011588162001d40565b15620011965760405162461bcd60e51b815260040180806020018281038252604d81526020018062003d22604d913960600191505060405180910390fd5b600a54604080516323b872dd60e01b81526001600160a01b03848116600483015230602483015260448201869052915191909216916323b872dd9160648083019260209291908290030181600087803b158015620011f357600080fd5b505af115801562001208573d6000803e3d6000fd5b505050506040513d60208110156200121f57600080fd5b50506001600160a01b038116600090815260046020908152604080832080548601905560025442016003819055600583529281902092909255815184815291517fbf4b01505c5e4fb981de92b440bf6f2e43356eabe4efd95c461804b882d2fd8d9281900390910190a15050565b60015460ff1690565b3380620012ea576040805162461bcd60e51b815260206004820152601f60248201527f4a7572792050726f746f636f6c3a20696e76616c696420616464726573732e00604482015290519081900360640190fd5b600b5460408051639cab033d60e01b81526001600160a01b03848116600483015291516000939290921691639cab033d91602480820192602092909190829003018186803b1580156200133c57600080fd5b505afa15801562001351573d6000803e3d6000fd5b505050506040513d60208110156200136857600080fd5b505111620013a85760405162461bcd60e51b815260040180806020018281038252603481526020018062003e7b6034913960400191505060405180910390fd5b6001600160a01b03811660009081526006602052604090205460ff1615620014025760405162461bcd60e51b815260040180806020018281038252603381526020018062003bbc6033913960400191505060405180910390fd5b6200142e7fbf51213143e517e7c28e119c116c7ff05540befafda101302ae548faceab5e728262001a18565b156200146c5760405162461bcd60e51b815260040180806020018281038252602e81526020018062003df2602e913960400191505060405180910390fd5b600b5460408051639cab033d60e01b81526001600160a01b03848116600483015291516000939290921691639cab033d91602480820192602092909190829003018186803b158015620014be57600080fd5b505afa158015620014d3573d6000803e3d6000fd5b505050506040513d6020811015620014ea57600080fd5b5051600a54600154604080516323b872dd60e01b81526001600160a01b03610100909304831660048201523060248201526044810185905290519394509116916323b872dd916064808201926020929091908290030181600087803b1580156200155357600080fd5b505af115801562001568573d6000803e3d6000fd5b505050506040513d60208110156200157f57600080fd5b50506001600160a01b03821660008181526004602090815260408083208054860190556006825291829020805460ff19166001179055815184815291517f074d84ced135f43a19fa9462c3115269c92d23810e983f404139f0af8327f34c9281900390910190a25050565b6000620015f66200128d565b156200163c576040805162461bcd60e51b815260206004820152601060248201526f14185d5cd8589b194e881c185d5cd95960821b604482015290519081900360640190fd5b6200165760008051602062003d6f8339815191523362001a18565b620016945760405162461bcd60e51b815260040180806020018281038252602c81526020018062003e20602c913960400191505060405180910390fd5b8551620016d35760405162461bcd60e51b815260040180806020018281038252603381526020018062003dbf6033913960400191505060405180910390fd5b60008411620017145760405162461bcd60e51b815260040180806020018281038252602581526020018062003ae26025913960400191505060405180910390fd5b60008311620017555760405162461bcd60e51b815260040180806020018281038252603d81526020018062003bef603d913960400191505060405180910390fd5b600086868686866040516200176a9062002594565b80806020018615158152602001858152602001848152602001838152602001828103825287818151815260200191508051906020019080838360005b83811015620017c0578181015183820152602001620017a6565b50505050905090810190601f168015620017ee5780820380516001836020036101000a031916815260200191505b509650505050505050604051809103906000f08015801562001814573d6000803e3d6000fd5b5060078054600180820183556000929092527fa66cc928b5edb82af9bd49922954155ab7b0942694bea4ce44661d9a8736c6880180546001600160a01b0319166001600160a01b03841617905560095491925062001873919062002167565b6009819055507f4bd8b8faa1e422739113e3159e4f6081b2b53d988b844bcea7529be208d2f09a87878760405180806020018415158152602001838152602001828103825285818151815260200191508051906020019080838360005b83811015620018ea578181015183820152602001620018d0565b50505050905090810190601f168015620019185780820380516001836020036101000a031916815260200191505b5094505050505060405180910390a19695505050505050565b620019416000620005dc6200209c565b6200197e5760405162461bcd60e51b815260040180806020018281038252602a81526020018062003cbd602a913960400191505060405180910390fd5b6001600160a01b038116620019da576040805162461bcd60e51b815260206004820181905260248201527f4a7572792050726f746f636f6c3a20696e76616c69656420616464726573732e604482015290519081900360640190fd5b6200064b60008051602062003d6f8339815191528262000e7b565b600082815260208190526040812062001a0f90836200229e565b90505b92915050565b600082815260208190526040812062001a0f9083620022ac565b62001a3c6200128d565b1562001a82576040805162461bcd60e51b815260206004820152601060248201526f14185d5cd8589b194e881c185d5cd95960821b604482015290519081900360640190fd5b338062001ad6576040805162461bcd60e51b815260206004820152601f60248201527f4a7572792050726f746f636f6c3a20696e76616c696420616464726573732e00604482015290519081900360640190fd5b6001600160a01b03811660009081526004602052604090205462001b2c5760405162461bcd60e51b815260040180806020018281038252603081526020018062003d8f6030913960400191505060405180910390fd5b600a54604080516370a0823160e01b815230600482015290516000926001600160a01b0316916370a08231916024808301926020929190829003018186803b15801562001b7857600080fd5b505afa15801562001b8d573d6000803e3d6000fd5b505050506040513d602081101562001ba457600080fd5b50516001600160a01b0383166000908152600460205260409020549091508181111562001c035760405162461bcd60e51b815260040180806020018281038252604081526020018062003c5c6040913960400191505060405180910390fd5b6001600160a01b03831660009081526005602052604090205442101562001c5c5760405162461bcd60e51b815260040180806020018281038252606481526020018062003b586064913960800191505060405180910390fd5b600a546040805163a9059cbb60e01b81526001600160a01b038681166004830152602482018590529151919092169163a9059cbb9160448083019260209291908290030181600087803b15801562001cb357600080fd5b505af115801562001cc8573d6000803e3d6000fd5b505050506040513d602081101562001cdf57600080fd5b50506001600160a01b03831660008181526004602090815260408083208390556005825280832092909255815184815291517f112efbd608541d9ad98bc4675ca40f7053f8a07a7f4a10ffffb7ff7ca91c394f9281900390910190a2505050565b6001600160a01b031660009081526004602052604090205490565b6001600160a01b0381166000908152600460205260409020546200064b5760405162461bcd60e51b815260040180806020018281038252603b81526020018062003ce7603b913960400191505060405180910390fd5b600081565b62001dc06200128d565b62001e09576040805162461bcd60e51b815260206004820152601460248201527314185d5cd8589b194e881b9bdd081c185d5cd95960621b604482015290519081900360640190fd5b62001e196000620005dc6200209c565b62001e6b576040805162461bcd60e51b815260206004820152601760248201527f43616c6c6572206973206e6f7420616e2061646d696e2e000000000000000000604482015290519081900360640190fd5b62001e75620022c3565b7f5db9ee0a495bf2e6ff9c91a7834c1ba4fdd244a5e8aa4e537bd38aeae4b073aa62001ea06200209c565b604080516001600160a01b039092168252519081900360200190a1565b62001ec76200128d565b1562001f0d576040805162461bcd60e51b815260206004820152601060248201526f14185d5cd8589b194e881c185d5cd95960821b604482015290519081900360640190fd5b62001f1d6000620005dc6200209c565b62001f68576040805162461bcd60e51b815260206004820152601660248201527521b0b63632b91034b9903737ba1030b71030b236b4b760511b604482015290519081900360640190fd5b62001f726200234b565b565b600081815260208190526040812062001a1290620023d2565b60008281526020819052604090206002015462001fae90620005dc6200209c565b62000f445760405162461bcd60e51b815260040180806020018281038252603081526020018062003c2c6030913960400191505060405180910390fd5b6200200660008051602062003d6f8339815191528262001a18565b6200064b5760405162461bcd60e51b815260040180806020018281038252602c81526020018062003e20602c913960400191505060405180910390fd5b600781815481106200205457600080fd5b6000918252602090912001546001600160a01b0316905081565b60095481565b600881815481106200205457600080fd5b600062001a0f836001600160a01b038416620023df565b3390565b600082620020b15750600062001a12565b82820282848281620020bf57fe5b041462001a0f5760405162461bcd60e51b815260040180806020018281038252602181526020018062003c9c6021913960400191505060405180910390fd5b600080821162002155576040805162461bcd60e51b815260206004820152601a60248201527f536166654d6174683a206469766973696f6e206279207a65726f000000000000604482015290519081900360640190fd5b8183816200215f57fe5b049392505050565b60008282018381101562001a0f576040805162461bcd60e51b815260206004820152601b60248201527f536166654d6174683a206164646974696f6e206f766572666c6f770000000000604482015290519081900360640190fd5b6000828152602081905260409020620021dc908262002085565b1562000ee557620021ec6200209c565b6001600160a01b0316816001600160a01b0316837f2f8788117e7eff1d82e926ec794901d17c78024a50270940304540a733656f0d60405160405180910390a45050565b60008281526020819052604090206200224a90826200242e565b1562000ee5576200225a6200209c565b6001600160a01b0316816001600160a01b0316837ff6391f5c32d9c69d2a47ea670b442974b53935d1edc7fd64eb21e047a839171b60405160405180910390a45050565b600062001a0f838362002445565b600062001a0f836001600160a01b038416620024ac565b620022cd6200128d565b62002316576040805162461bcd60e51b815260206004820152601460248201527314185d5cd8589b194e881b9bdd081c185d5cd95960621b604482015290519081900360640190fd5b6001805460ff191690557f5db9ee0a495bf2e6ff9c91a7834c1ba4fdd244a5e8aa4e537bd38aeae4b073aa62001ea06200209c565b620023556200128d565b156200239b576040805162461bcd60e51b815260206004820152601060248201526f14185d5cd8589b194e881c185d5cd95960821b604482015290519081900360640190fd5b6001805460ff1916811790557f62e78cea01bee320cd4e420270b5ea74000d11b0c9f74754ebdbfc544b05a25862001ea06200209c565b600062001a1282620024c4565b6000620023ed8383620024ac565b620024255750815460018181018455600084815260208082209093018490558454848252828601909352604090209190915562001a12565b50600062001a12565b600062001a0f836001600160a01b038416620024c8565b81546000908210620024895760405162461bcd60e51b815260040180806020018281038252602281526020018062003b076022913960400191505060405180910390fd5b8260000182815481106200249957fe5b9060005260206000200154905092915050565b60009081526001919091016020526040902054151590565b5490565b60008181526001830160205260408120548015620025895783546000198083019190810190600090879083908110620024fd57fe5b90600052602060002001549050808760000184815481106200251b57fe5b6000918252602080832090910192909255828152600189810190925260409020908401905586548790806200254c57fe5b6001900381819060005260206000200160009055905586600101600087815260200190815260200160002060009055600194505050505062001a12565b600091505062001a12565b61153f80620025a38339019056fe60806040523480156200001157600080fd5b506040516200153f3803806200153f833981810160405260a08110156200003757600080fd5b81019080805160405193929190846401000000008211156200005857600080fd5b9083019060208201858111156200006e57600080fd5b82516401000000008111828201881017156200008957600080fd5b82525081516020918201929091019080838360005b83811015620000b85781810151838201526020016200009e565b50505050905090810190601f168015620000e65780820380516001836020036101000a031916815260200191505b5060409081526020828101519183015160608401516080909401516001805460ff1916905587519396509094509162000126916002919088019062000190565b506004805460ff60a01b1916600160a01b8615150217905560038390556200014d6200018c565b6004805460ff60a81b196001600160a01b03939093166001600160a01b03199091161791909116600160a81b179055600555600655506200023c915050565b3390565b828054600181600116156101000203166002900490600052602060002090601f016020900481019282620001c8576000855562000213565b82601f10620001e357805160ff191683800117855562000213565b8280016001018555821562000213579182015b8281111562000213578251825591602001919060010190620001f6565b506200022192915062000225565b5090565b5b8082111562000221576000815560010162000226565b6112f3806200024c6000396000f3fe608060405234801561001057600080fd5b50600436106101375760003560e01c806391d14854116100b8578063c71e87531161007c578063c71e8753146102ee578063ca15c873146102f6578063ca3bfe8b14610313578063d547741f1461031b578063deafa01014610347578063fb8edbbe146103b657610137565b806391d148541461028457806398f6560b146102b0578063a217fddf146102b8578063b796cee4146102c0578063c6bea19b146102c857610137565b80635d3d9765116100ff5780635d3d9765146101e957806360acdc731461020f578063736ba516146102355780638a67f3171461023d5780639010d07c1461024557610137565b80630e8622d31461013c578063248a9ca3146101565780632f2ff15d1461017357806336568abe146101a15780635c975abb146101cd575b600080fd5b6101446103be565b60408051918252519081900360200190f35b6101446004803603602081101561016c57600080fd5b50356103c4565b61019f6004803603604081101561018957600080fd5b50803590602001356001600160a01b03166103d9565b005b61019f600480360360408110156101b757600080fd5b50803590602001356001600160a01b0316610445565b6101d56104a6565b604080519115158252519081900360200190f35b6101d5600480360360208110156101ff57600080fd5b50356001600160a01b03166104af565b6101446004803603602081101561022557600080fd5b50356001600160a01b03166104c4565b6101d56104d6565b61019f6104e6565b6102686004803603604081101561025b57600080fd5b508035906020013561071c565b604080516001600160a01b039092168252519081900360200190f35b6101d56004803603604081101561029a57600080fd5b50803590602001356001600160a01b031661073d565b61019f610755565b6101446108a1565b61019f6108a6565b6101d5600480360360208110156102de57600080fd5b50356001600160a01b0316610a96565b61019f610aab565b6101446004803603602081101561030c57600080fd5b5035610ce5565b610144610cfc565b61019f6004803603604081101561033157600080fd5b50803590602001356001600160a01b0316610d02565b6103666004803603602081101561035d57600080fd5b50351515610d5b565b60408051602080825283518183015283519192839290830191858101910280838360005b838110156103a257818101518382015260200161038a565b505050509050019250505060405180910390f35b610144610e33565b60035490565b60009081526020819052604090206002015490565b6000828152602081905260409020600201546103fc906103f7610e39565b61073d565b6104375760405162461bcd60e51b815260040180806020018281038252602f8152602001806111b7602f913960400191505060405180910390fd5b6104418282610e3d565b5050565b61044d610e39565b6001600160a01b0316816001600160a01b03161461049c5760405162461bcd60e51b815260040180806020018281038252602f81526020018061128f602f913960400191505060405180910390fd5b6104418282610ea6565b60015460ff1690565b60086020526000908152604090205460ff1681565b60096020526000908152604090205481565b600454600160b01b900460ff1690565b6104ee6104a6565b15610533576040805162461bcd60e51b815260206004820152601060248201526f14185d5cd8589b194e881c185d5cd95960821b604482015290519081900360640190fd5b3380610578576040805162461bcd60e51b815260206004820152600f60248201526e696e76616c6964206164647265737360881b604482015290519081900360640190fd5b600454600160a81b900460ff1615156001146105c55760405162461bcd60e51b815260040180806020018281038252602a8152602001806111e6602a913960400191505060405180910390fd5b6004546001600160a01b038281169116141561061c576040805162461bcd60e51b815260206004820152601160248201527061646d696e2063616e6e6f7420766f746560781b604482015290519081900360640190fd5b6001600160a01b038116600090815260096020526040902054600114156106745760405162461bcd60e51b815260040180806020018281038252602481526020018061126b6024913960400191505060405180910390fd5b6001600160a01b038116600081815260096020908152604080832060019081905560088352818420805460ff19169055600d805482019055600b8054918201815584527f0175b7a638427703f0dbe7bb9bbf987a2551717b34e79f33b5b1008d1fa01db90180546001600160a01b031916851790558051928352517f86d3aba7da1eacebff72548437d49b6e8efe5d4dd8482d2f7dc9bd66191ed1c29281900390910190a250565b60008281526020819052604081206107349083610f0f565b90505b92915050565b60008281526020819052604081206107349083610f1b565b61075d6104a6565b156107a2576040805162461bcd60e51b815260206004820152601060248201526f14185d5cd8589b194e881c185d5cd95960821b604482015290519081900360640190fd5b33806107e7576040805162461bcd60e51b815260206004820152600f60248201526e696e76616c6964206164647265737360881b604482015290519081900360640190fd5b6004546001600160a01b03828116911614610841576040805162461bcd60e51b81526020600482015260156024820152743cb7ba9030b932903737ba1030b71030b236b4b71760591b604482015290519081900360640190fd5b600454600160a81b900460ff16151560011461088e5760405162461bcd60e51b815260040180806020018281038252602a8152602001806111e6602a913960400191505060405180910390fd5b6108966108a6565b61089e610f30565b50565b600081565b6108ae6104a6565b156108f3576040805162461bcd60e51b815260206004820152601060248201526f14185d5cd8589b194e881c185d5cd95960821b604482015290519081900360640190fd5b3380610939576040805162461bcd60e51b815260206004820152601060248201526f34b73b30b634b21030b2323932b9b99760811b604482015290519081900360640190fd5b6004546001600160a01b03828116911614610993576040805162461bcd60e51b81526020600482015260156024820152743cb7ba9030b932903737ba1030b71030b236b4b71760591b604482015290519081900360640190fd5b600454600160a81b900460ff1615156001146109e05760405162461bcd60e51b815260040180806020018281038252602b815260200180611210602b913960400191505060405180910390fd5b600d54600c541415610a13576004805460ff600160a01b8204161515600160b01b0260ff60b01b19909116179055610a51565b600d54600c541115610a37576004805460ff60b01b1916600160b01b179055610a51565b600c54600d541115610a51576004805460ff60b01b191690555b60045460408051600160b01b90920460ff1615158252517f25ec7f3b099244eef17ad1282c5f6e3c8a05cd15bebd7bcb941535aa3b0e2ea3916020908290030190a150565b60076020526000908152604090205460ff1681565b610ab36104a6565b15610af8576040805162461bcd60e51b815260206004820152601060248201526f14185d5cd8589b194e881c185d5cd95960821b604482015290519081900360640190fd5b3380610b3d576040805162461bcd60e51b815260206004820152600f60248201526e696e76616c6964206164647265737360881b604482015290519081900360640190fd5b6004546001600160a01b0382811691161415610b94576040805162461bcd60e51b815260206004820152601160248201527061646d696e2063616e6e6f7420766f746560781b604482015290519081900360640190fd5b600454600160a81b900460ff161515600114610be15760405162461bcd60e51b815260040180806020018281038252602a8152602001806111e6602a913960400191505060405180910390fd5b6001600160a01b03811660009081526009602052604090205460011415610c395760405162461bcd60e51b815260040180806020018281038252602481526020018061126b6024913960400191505060405180910390fd5b6001600160a01b038116600081815260096020908152604080832060019081905560078352818420805460ff191682179055600c805482019055600a8054808301825594527fc65a7bb8d6351c1cf70c95a316cc6a92839c986682d98bc35f958f4883f9d2a890930180546001600160a01b031916851790558051928352517fa68cbe068e05e81bab6eac3a13c4b05e76f8488f3e2de9eb2c76f2129a7cdd6f9281900390910190a250565b600081815260208190526040812061073790610fcf565b60055490565b600082815260208190526040902060020154610d20906103f7610e39565b61049c5760405162461bcd60e51b815260040180806020018281038252603081526020018061123b6030913960400191505060405180910390fd5b60608060018315151415610dcb57600a805480602002602001604051908101604052809291908181526020018280548015610dbf57602002820191906000526020600020905b81546001600160a01b03168152600190910190602001808311610da1575b50505050509050610737565b8261073757600b805480602002602001604051908101604052809291908181526020018280548015610e2657602002820191906000526020600020905b81546001600160a01b03168152600190910190602001808311610e08575b5050505050905092915050565b60065490565b3390565b6000828152602081905260409020610e559082610fda565b1561044157610e62610e39565b6001600160a01b0316816001600160a01b0316837f2f8788117e7eff1d82e926ec794901d17c78024a50270940304540a733656f0d60405160405180910390a45050565b6000828152602081905260409020610ebe9082610fef565b1561044157610ecb610e39565b6001600160a01b0316816001600160a01b0316837ff6391f5c32d9c69d2a47ea670b442974b53935d1edc7fd64eb21e047a839171b60405160405180910390a45050565b60006107348383611004565b6000610734836001600160a01b038416611068565b610f386104a6565b15610f7d576040805162461bcd60e51b815260206004820152601060248201526f14185d5cd8589b194e881c185d5cd95960821b604482015290519081900360640190fd5b6001805460ff1916811790557f62e78cea01bee320cd4e420270b5ea74000d11b0c9f74754ebdbfc544b05a258610fb2610e39565b604080516001600160a01b039092168252519081900360200190a1565b600061073782611080565b6000610734836001600160a01b038416611084565b6000610734836001600160a01b0384166110ce565b815460009082106110465760405162461bcd60e51b81526004018080602001828103825260228152602001806111956022913960400191505060405180910390fd5b82600001828154811061105557fe5b9060005260206000200154905092915050565b60009081526001919091016020526040902054151590565b5490565b60006110908383611068565b6110c657508154600181810184556000848152602080822090930184905584548482528286019093526040902091909155610737565b506000610737565b6000818152600183016020526040812054801561118a578354600019808301919081019060009087908390811061110157fe5b906000526020600020015490508087600001848154811061111e57fe5b60009182526020808320909101929092558281526001898101909252604090209084019055865487908061114e57fe5b60019003818190600052602060002001600090559055866001016000878152602001908152602001600020600090556001945050505050610737565b600091505061073756fe456e756d657261626c655365743a20696e646578206f7574206f6620626f756e6473416363657373436f6e74726f6c3a2073656e646572206d75737420626520616e2061646d696e20746f206772616e74796f752063616e27742063686f6f736520616e206f7074696f6e2c2070726f706f73616c20656e646564796f752063616e27742063686f6f736520616e206f7074696f6e2c2070726f706f73616c20656e6465642e416363657373436f6e74726f6c3a2073656e646572206d75737420626520616e2061646d696e20746f207265766f6b657573657220616c726561647920766f74656420666f7220746869732070726f706f73616c416363657373436f6e74726f6c3a2063616e206f6e6c792072656e6f756e636520726f6c657320666f722073656c66a2646970667358221220afe692ccb6822962e888cdb3e7f230ddcd7859bbd723ef4a37048cfcf9863f3164736f6c634300070400334a7572792050726f746f636f6c3a207265776172642063616e6e6f74206265207a65726f2e456e756d657261626c655365743a20696e646578206f7574206f6620626f756e6473416363657373436f6e74726f6c3a2073656e646572206d75737420626520616e2061646d696e20746f206772616e744a7572792050726f746f636f6c3a20796f752063616e277420776974686472617720796f75722062616c616e63652c2073706f6e20746f6b656e7320617265207374696c6c206c6f636b656420696e207468652063757272656e742074696d656c696e654a7572792050726f746f636f6c3a20746865207573657220616c7265616479206d6572676564206869732062616c616e63652e4a7572792050726f746f636f6c3a207265776172642050657263656e7420446563696d616c206d757374206265206d6f7265207468616e207a65726f2e416363657373436f6e74726f6c3a2073656e646572206d75737420626520616e2061646d696e20746f207265766f6b654a7572792050726f746f636f6c3a207468657265206973206e6f20656e6f7567682062616c616e636520696e2074686520736d61727420636f6e74726163742e536166654d6174683a206d756c7469706c69636174696f6e206f766572666c6f774a7572792050726f746f636f6c3a2043616c6c6572206973206e6f742061206d61696e2061646d696e2e4a7572792050726f746f636f6c3a20796f752063616e277420766f746520776974686f757420686176696e6720636f6d6d69742062616c616e6365796f752061616c7265616479206861766520636f6d6d69742062616c616e63652c20706c6561736520776972746864726177207468652063757272656e7420636f6d6d69742062616c616e6365a49807205ce4d355092ef5a8a18f56e8913cf4a201fbe287825b095693c217754a7572792050726f746f636f6c3a2075736572277320636f6d6d69747465642062616c616e6365206973207a65726f2e4a7572792050726f746f636f6c3a2070726f706f73616c204465736372697074696f6e2063616e277420626520656d7074792e4a7572792050726f746f636f6c3a20746869732061646472657373206d616e75616c6c7920756e7374616b65642e4a7572792050726f746f636f6c3a20746869732061646472657373206973206e6f7420616e2061646d696e2e4a7572792050726f746f636f6c3a207573657220646f65736e74206f776e20616e792073706f6e20746f6b656e732e4a7572792050726f746f636f6c3a207573657220646f6573206e6f74206f776e20616e7920636f6d6d69742062616c616e63652e416363657373436f6e74726f6c3a2063616e206f6e6c792072656e6f756e636520726f6c657320666f722073656c66a264697066735822122087432da60608a6353fba7757aa76e0ee84c19180b30cf2689528538f683f5ad064736f6c63430007040033",
  "immutableReferences": {},
  "source": "// SPDX-License-Identifier: MIT\r\npragma solidity >=0.4.22 <0.9.0;\r\n\r\nimport \"@openzeppelin/contracts/token/ERC20/ERC20.sol\";\r\nimport \"./juryProposal.sol\";\r\nimport \"./IjuryRegistry.sol\";\r\nimport \"./tokenMigration.sol\";\r\nimport \"@openzeppelin/contracts/access/AccessControl.sol\";\r\nimport \"@openzeppelin/contracts/utils/Pausable.sol\";\r\n\r\n// this contract will create a new proposals smart contracts that will be deployed on the mainnet \r\n\r\ncontract juryRegistry is IjuryRegistry, AccessControl,Pausable{\r\n    using SafeMath for uint256;\r\n\r\n    address owner;\r\n    uint256 lockedTimePeriod = 2 minutes; // this is the input of joel when he decide to add the locked time period\r\n    uint256 neededTimeline; // this is the time that keeps updates and counts one month after the add commit balance happen\r\n\r\n    bytes32 constant ADMIN_ROLE = keccak256(\"ADMIN_ROLE\");\r\n    bytes32 constant UNSTAKED_WALLET_ROLE = keccak256(\"UNSTAKED_WALLET_ROLE\");\r\n\r\n  constructor() public {\r\n    owner = msg.sender;\r\n    _setupRole(DEFAULT_ADMIN_ROLE, owner);\r\n    _setupRole(ADMIN_ROLE, owner);\r\n  }\r\n\r\n  // this mapping saves the SPON tokens when the user commits his Balance\r\n  mapping(address => uint256) committedBalance;\r\n\r\n  // this mapping is from the user address to the timeline of his commitedBalance \r\n  // this function is to track the time when the user add a new commit balance and withdraw\r\n  mapping(address => uint256) usersTimeline;\r\n\r\n  // this mapping will track the users to only make them merge the committed balance once \r\n  mapping(address => bool) mergeBalanceAddress;\r\n\r\n\r\n  // this array for us to track the active Proposals in general\r\n  // it can be used in many ideas in the ui if we know the contracts that are still active\r\n  address[] public activeProposals;\r\n  \r\n  // this arrary for us to track the proposals that eneded and no longer active \r\n  address[] public endedProposals;\r\n  \r\n\r\n  // this counter shows in numbers the total proposals\r\n  // great for showcase in UI in general\r\n  uint256 public totalProposalCounter;\r\n\r\n\r\n    // this is the real contract address of the new token\r\n    //ERC20 newSponToken = ERC20(0xD1992F0BAcfdb7D195a819306c30eA65F73080af);\r\n    \r\n    \r\n    // this is the fake (for testing) contract address of the new tokenQuantity\r\n    ERC20 newTestSponToken = ERC20(0xD18F0f7A15bc2F472592c11d17c5A77624c636c2);\r\n\r\n      // migration contract (mainnet)\r\n      //tokenMigration migration = tokenMigration(0xcaf6048F37888d8a617D13edd9ac797eEF0Fb51e);\r\n      \r\n      // migration contract (testnet)\r\n      tokenMigration migration = tokenMigration(0xb9a45f3684A280Df5caCE4F4A2310076771A86b7);\r\n\r\n// this function will creqate a new smart contract proposals from the admin only \r\n// and will be saved in the blockchaion and also here in this jury Reghisrty contract\r\nfunction createNewProposal(\r\n    string memory proposalDescription,\r\n    bool correctAnswer,\r\n    uint256 rewardPercent,\r\n    uint256 rewardPercentDecimal,\r\n    uint256 votesLimit\r\n  ) public whenNotPaused() returns (address) {\r\n    require(hasRole(ADMIN_ROLE, msg.sender),\"Jury Protocol: this address is not an admin.\");\r\n    require(bytes(proposalDescription).length != 0, \"Jury Protocol: proposal Description can't be empty.\");\r\n    require(rewardPercent > 0, \"Jury Protocol: reward cannot be zero.\");\r\n    require(rewardPercentDecimal > 0, \"Jury Protocol: reward Percent Decimal must be more than zero.\");\r\n    juryProposal newProposal =\r\n      new juryProposal(\r\n        proposalDescription,\r\n        correctAnswer,\r\n        rewardPercent,\r\n        rewardPercentDecimal,\r\n        votesLimit\r\n      );\r\n\r\n    // adding the proposal address to the activeProposals\r\n    activeProposals.push(address(newProposal));\r\n\r\n    // adding the proposal to the total proposal Counter\r\n    totalProposalCounter = totalProposalCounter.add(1);\r\n\r\n    emit CreateNewProposal(\r\n      proposalDescription,\r\n      correctAnswer,\r\n      rewardPercent\r\n    );\r\n    return address(newProposal);\r\n  }\r\n\r\n  // this function is to add a new admin \r\n  // admins are allowed to create, end and distribute rewards of smart contract proposals\r\n  function addAdmin(address approvedAdmin) public {\r\n    require(hasRole(DEFAULT_ADMIN_ROLE, _msgSender()),\"Jury Protocol: Caller is not a main admin.\");\r\n    require(approvedAdmin != address(0),\"Jury Protocol: invalied address.\");\r\n\r\n    grantRole(ADMIN_ROLE, approvedAdmin);\r\n  } \r\n\r\n  // this function is to remove a current admin\r\n  // admins removed can't create,end and distribute rewards of smart contracts proposals\r\n  function removeAdmin(address removedAdmin) public {\r\n    require(hasRole(DEFAULT_ADMIN_ROLE, _msgSender()),\"Jury Protocol: Caller is not a main admin.\");\r\n    require(removedAdmin != address(0),\"Jury Protocol: invalied address.\");\r\n\r\n    // remove the admin role from an address \r\n    revokeRole(ADMIN_ROLE, removedAdmin);\r\n  }\r\n\r\n  // this function is a check function just to make sure that the user (addrtess) that implement the function is an admin\r\n  function isAdminCheck(address user) public view {\r\n      require(hasRole(ADMIN_ROLE, user),\"Jury Protocol: this address is not an admin.\");\r\n  }\r\n\r\n  // this function is to an address as unstaked  \r\n  // this function will assign a UNSTAKED_WALLET_ROLE (Role) to an address and that address can't use the merge function\r\n  function addUnstakedAddress(address unstakedUser) public {\r\n    require(hasRole(DEFAULT_ADMIN_ROLE, _msgSender()),\"Jury Protocol: Caller is not a main admin.\");\r\n\r\n    grantRole(UNSTAKED_WALLET_ROLE, unstakedUser);\r\n  }\r\n  \r\n  \r\n    uint256 fetched;\r\n\r\n\r\n  // this function is top end a proposal and distribute Rewards to the addresses with a acorrect vote\r\n  function distributeRewards(address selectedProposal) public whenNotPaused() {\r\n    // here we make sure that the Sponsee admin is the one using that function\r\n    require(hasRole(ADMIN_ROLE, msg.sender),\"Jury Protocol: this address is not an admin.\");\r\n    \r\n    // here we fetch the index of the proposal smart contract address in the array\r\n    // in order to run a require check on it if its exsists\r\n    // needs to be tested\r\n    //   uint256 fetchedIndex;\r\n    //   for(uint i = 0; i <=activeProposals.length-1;i++){\r\n    //       if(activeProposals[i] == selectedProposal){\r\n    //           fetchedIndex = i;\r\n    //       }\r\n    //   }\r\n    \r\n     // require(activeProposals[fetchedIndex] == selectedProposal,\"Jury Protocol: this proposal is not active\" );\r\n\r\n    // here we create an instance of the selectedProposal\r\n    juryProposal selected = juryProposal(selectedProposal);\r\n\r\n    // here we fetch the correct answer from the selected proposal smart cotnract\r\n    bool lockedAnswer = selected.getCorrectAnswer();\r\n    \r\n    // needs to be tested\r\n    // here we take the correct addresses from the proposal selected and save them in the memory array\r\n    // in order to Fetch the commit balance and give reward\r\n    address [] memory correctAddresses = selected.fetchCorrectArray(lockedAnswer);\r\n\r\n    // here we get the reward percentage \r\n    uint256 rewardPercent = selected.getRewardPercent(); // 10% in solidity we cant add float  (10)\r\n    \r\n    // here we fetch the vote limits enterd by the admin in the smart contract proposal \r\n    uint256 FetchedVotesLimit = selected.getVotesLimit(); // 1000 or what ever the admin picks\r\n\r\n\r\n    // we need to change this when we go to main net\r\n    uint8 sponDecimals = newTestSponToken.decimals();\r\n\r\n    // uint256 rewardPercentInFloat = rewardPercent.div(100); DOESNT WORK\r\n    uint256 rewardPercentInFloat = rewardPercent.mul(10 ** sponDecimals).div(100);\r\n\r\n    uint256 rewardPercentInFloat2 = rewardPercent.mul(10 ** sponDecimals).div(1000);\r\n\r\n\r\n    // the total reward of the fecthed contract proposal address will be saved in this varialbe \r\n    uint256 totalReward;\r\n    \r\n    uint256 proposalRewardPercentDecimals = selected.getRewardPercentDecimals();\r\n    \r\n    // here we run a loop on the addresses with a correct answer and update their balance\r\n    // and also update the totalReward variable\r\n    if(proposalRewardPercentDecimals == 2){\r\n        \r\n        for(uint i = 0; i <= correctAddresses.length - 1; i++){\r\n            if(i > FetchedVotesLimit - 1){\r\n                break;\r\n            }\r\n            \r\n      address selectedAddress = correctAddresses[i];\r\n      \r\n      uint256 userCommitedBalance = committedBalance[selectedAddress].div(1000000000000000000);\r\n      \r\n      uint256 rewardGranted = userCommitedBalance.mul(rewardPercentInFloat);\r\n  \r\n\r\n      committedBalance[selectedAddress] = committedBalance[selectedAddress].add(rewardGranted);\r\n\r\n      totalReward = totalReward.add(rewardGranted);\r\n\r\n    }\r\n    \r\n     fetched = totalReward;\r\n     \r\n    }else if(proposalRewardPercentDecimals == 3){\r\n        \r\n      for(uint i = 0; i <= correctAddresses.length - 1; i++){\r\n          \r\n          if(i > FetchedVotesLimit - 1){\r\n              break;\r\n          }\r\n      address selectedAddress = correctAddresses[i];\r\n      \r\n      uint256 userCommitedBalance = committedBalance[selectedAddress].div(1000000000000000000);\r\n      \r\n      uint256 rewardGranted = userCommitedBalance.mul(rewardPercentInFloat2);\r\n  \r\n\r\n      committedBalance[selectedAddress] = committedBalance[selectedAddress].add(rewardGranted);\r\n\r\n      totalReward = totalReward.add(rewardGranted);\r\n\r\n    }\r\n    \r\n     fetched = totalReward;\r\n    }\r\n    \r\n\r\n    // implement an approve from Sponsee (company) side contract to jury Registry contract from frontend ui\r\n    // transfer the total reward from the admin (sponsee team) to the smart contract and lock it under the correct users addresses \r\n    newTestSponToken.transferFrom(owner, address(this), totalReward.add(1));\r\n\r\n    \r\n    // delete the proposal from the activeProposals array \r\n     // delete activeProposals[fetchedIndex];\r\n    \r\n    // add the proposal status to be ended Proposal \r\n    endedProposals.push(selectedProposal);\r\n\r\n    // notify\r\n    emit DistributeRewards(selectedProposal);\r\n  }\r\n  \r\n  // this function is to add commit balance from the spon token \r\n  // the tokens will be transfered to the contract and locked for the timeline period\r\n  // a timeline restriction will be added to the user address so that the tokens can be locked for a specific period\r\n  function addCommitedBalance(uint256 amount) public whenNotPaused() {\r\n    address user = _msgSender();\r\n    require(user != address(0),\"Jury Protocol: invalid address.\");\r\n    // we need to change this when we go to main net\r\n    require(newTestSponToken.balanceOf(user) > 0, \"Jury Protocol: user doesnt own any spon tokens.\");\r\n\r\n    // we need to make sure that the user commit balance is zero \r\n    // so that the timer can start again \r\n    require(getUserCommittedBalance(user) == 0, \"you aalready have commit balance, please wirthdraw the current commit balance\");\r\n\r\n    // we need to change this when we go to main net\r\n    newTestSponToken.transferFrom(user, address(this), amount);\r\n\r\n    // update the user commit balance with the amount he entered\r\n    committedBalance[user] = committedBalance[user] + amount;\r\n\r\n    // fetch the needed timeline that the token needs to be locked for\r\n    neededTimeline = block.timestamp + lockedTimePeriod;\r\n\r\n    // save the needed timeline in the mapping under the users address\r\n    usersTimeline[user] = neededTimeline;\r\n\r\n    emit AddCommitedBalance(amount);\r\n  }\r\n\r\n  // this function is to allow the user to withdraw his spon commited balance \r\n  // if the timeline restriction ended the user can wihtdraw his token\r\n  function withdrawCommittedBalance() public whenNotPaused(){\r\n    address user = msg.sender;\r\n    require(user != address(0),\"Jury Protocol: invalid address.\");\r\n    require(committedBalance[user] > 0, \"Jury Protocol: user's committed balance is zero.\");\r\n    uint256 SponBalance = newTestSponToken.balanceOf(address(this));\r\n\r\n    // fetch the user commited balance\r\n    uint256 userLockedBalance = committedBalance[user];\r\n    require(userLockedBalance <= SponBalance, \"Jury Protocol: there is no enough balance in the smart contract.\");\r\n    // make sure that the current time is more than the locked timeline under the user address\r\n    // it means that the commited balance needs to be locked for specific time\r\n    require(block.timestamp >= usersTimeline[user], \"Jury Protocol: you can't withdraw your balance, spon tokens are still locked in the current timeline\");\r\n\r\n    // transfer the tokens to the user\r\n    // we need to change this when we go to main net\r\n    newTestSponToken.transfer(user, userLockedBalance);\r\n    \r\n    // update his new commited balance to zero in jury Registry contract\r\n    committedBalance[user] = 0;\r\n\r\n    // rteset the timeline for the user address\r\n    usersTimeline[user] = 0 hours;\r\n\r\n    // notify\r\n    emit WithdrawCommittedBalance(user,userLockedBalance);\r\n\r\n  }\r\n\r\n  function mergeCommittedBalance()public{\r\n    address user = msg.sender;\r\n\r\n    require(user != address(0), \"Jury Protocol: invalid address.\");\r\n    require(migration.getUserCommittedBalance(user) > 0, \"Jury Protocol: user does not own any commit balance.\"); // must be tested\r\n    require(mergeBalanceAddress[user] == false, \"Jury Protocol: the user already merged his balance.\");\r\n    require(hasRole(UNSTAKED_WALLET_ROLE, user) == false,\"Jury Protocol: this address manually unstaked.\");\r\n\r\n    // implement an approve from the sponsee owner contract to jury Registry contract\r\n    // so that we can transfer the user migration committed tokens here in this contract and lock it in here under the user address\r\n\r\n    // Fetch the old commit amount from the migration contract\r\n    uint256 amount = migration.getUserCommittedBalance(user);\r\n\r\n    // transfer the Spon tokens to the contract and lock them\r\n    newTestSponToken.transferFrom(owner, address(this), amount);\r\n\r\n    // add the merged committed balance to his balance in the jury Registry contract\r\n    committedBalance[user] = committedBalance[user] + amount;\r\n\r\n    // add his address as true in the tracking mapping in order to not let the user active that function again\r\n    mergeBalanceAddress[user]= true;\r\n\r\n    //notify...\r\n    emit MergeCommittedBalance(user, amount);\r\n  }\r\n\r\n  // Query functions\r\n  // this function might be usefull to query for the user new Spon tokens to display in frontend when the user connects his wallet\r\n  function newSponBalance(address _user) public view returns (uint256){\r\n      uint256 QueryBalance2 =  newTestSponToken.balanceOf(_user);\r\n      return QueryBalance2;\r\n  }\r\n    \r\n\r\n  // this function is to fetch the user spon commited balance locked in the contract\r\n  function getUserCommittedBalance(address _user) public view returns (uint256){\r\n      uint256 queryCommittedBalance = committedBalance[_user];\r\n      return queryCommittedBalance;\r\n  }\r\n\r\n   function isCommitBalance(address user) public {\r\n        require(committedBalance[user] > 0,\"Jury Protocol: you can't vote without having commit balance\");\r\n    } \r\n\r\n  // this function will pasue the smart contract\r\n  // in case of any unexpected thing happen\r\n  // when the contract is pasued it can't use any function \r\n  function startPause() public whenNotPaused(){\r\n    require(\r\n      hasRole(DEFAULT_ADMIN_ROLE, _msgSender()),\r\n      \"Caller is not an admin\"\r\n    );\r\n\r\n    // we pasue the contract for ever and we end sign it from our side to close it\r\n    super._pause();\r\n  }\r\n\r\n\r\n  // this function is to unpasue the contract so that the functions can be called again\r\n  function startUnpause() public whenPaused(){\r\n\r\n      require(\r\n      hasRole(DEFAULT_ADMIN_ROLE, _msgSender()),\r\n      \"Caller is not an admin.\"\r\n    );\r\n    \r\n    // Active the Unpause function\r\n    super._unpause();\r\n\r\n    // Notify...\r\n    emit Unpaused(_msgSender());\r\n  }\r\n} ",
  "sourcePath": "C:/Users/Zaid/Desktop/New folder (4)/Jury protocol/src/contracts/juryRegistry.sol",
  "compiler": {
    "name": "solc",
    "version": "0.7.4+commit.3f05b770.Emscripten.clang"
  },
  "schemaVersion": "3.3.1",
  "updatedAt": "2021-11-22T18:09:16.217Z",
  "networkType": "ethereum",
  "devdoc": {
    "kind": "dev",
    "methods": {
      "getRoleAdmin(bytes32)": {
        "details": "Returns the admin role that controls `role`. See {grantRole} and {revokeRole}. To change a role's admin, use {_setRoleAdmin}."
      },
      "getRoleMember(bytes32,uint256)": {
        "details": "Returns one of the accounts that have `role`. `index` must be a value between 0 and {getRoleMemberCount}, non-inclusive. Role bearers are not sorted in any particular way, and their ordering may change at any point. WARNING: When using {getRoleMember} and {getRoleMemberCount}, make sure you perform all queries on the same block. See the following https://forum.openzeppelin.com/t/iterating-over-elements-on-enumerableset-in-openzeppelin-contracts/2296[forum post] for more information."
      },
      "getRoleMemberCount(bytes32)": {
        "details": "Returns the number of accounts that have `role`. Can be used together with {getRoleMember} to enumerate all bearers of a role."
      },
      "grantRole(bytes32,address)": {
        "details": "Grants `role` to `account`. If `account` had not been already granted `role`, emits a {RoleGranted} event. Requirements: - the caller must have ``role``'s admin role."
      },
      "hasRole(bytes32,address)": {
        "details": "Returns `true` if `account` has been granted `role`."
      },
      "paused()": {
        "details": "Returns true if the contract is paused, and false otherwise."
      },
      "renounceRole(bytes32,address)": {
        "details": "Revokes `role` from the calling account. Roles are often managed via {grantRole} and {revokeRole}: this function's purpose is to provide a mechanism for accounts to lose their privileges if they are compromised (such as when a trusted device is misplaced). If the calling account had been granted `role`, emits a {RoleRevoked} event. Requirements: - the caller must be `account`."
      },
      "revokeRole(bytes32,address)": {
        "details": "Revokes `role` from `account`. If `account` had been granted `role`, emits a {RoleRevoked} event. Requirements: - the caller must have ``role``'s admin role."
      }
    },
    "version": 1
  },
  "userdoc": {
    "kind": "user",
    "methods": {},
    "version": 1
  }
}